:020000040000FA
:100000000C94AE010C94DF010C94DF010C94DF0121
:100010000C94DF010C94DF010C94DF010C94DF01E0
:100020000C94DF010C94DF010C94DF010C94DF01D0
:100030000C94DF010C94DF010C94DF010C94DF01C0
:100040000C94DF010C94DF010C94DF010C94DF01B0
:100050000C94DF010C94DF010C94DF010C94CF1E93
:100060000C94DF010C94A51E0C947B1E0C94DF01F4
:100070000C94DF010C94DF010C94DF010C94DF0180
:100080000C94DF010C94DF010C94DF010C94DF0170
:100090000C94511E0C94271E0C94DF010C94DF016C
:1000A0000C94DF010C94DF010C94DF010C94DF0150
:1000B0000C94DF010C94DF010C94DF010C94DF0140
:1000C0000C94DF010C94DF010C94DF010C94431FAE
:1000D0000C94191F0C94DF010C94DF010C94DF01C8
:1000E0000C94DF010C94082B0C94A9080C94123288
:1000F0000C94671A0C943B2A0C948B310C94570285
:100100000C944B030C9469050C9471050C94B10983
:100110000C943E030C94532A0C946D050C94C10569
:100120000C94180A0C944F030C94411D0C944D2A06
:100130000C9449020C9470030C94670B0C943003DC
:100140000C9481050C945C2A0C9459030C941405AE
:100150000C9498020C94DF020C9488310C94383182
:100160000C94D3080C948A080C9471030C94DC0D45
:100170000C94F1080C9442030C9408020C943F3048
:100180000C943A030C94E8070C94222A0C94D70898
:100190000C941D310C9441310C9436030C94D10A0B
:1001A0000C9426310C945D030C946D1F0C94350255
:1001B0000C94502A0C94AB050C9467030C94E00645
:1001C0000C94C9310C9455030C946F070C9445039F
:1001D0000C9448090C947F310C946B030C94A20589
:1001E0000C94BB300C942F310C94B41D0C94332D13
:1001F0000C94AC070C94292A0C943F060C941431EF
:100200000C94AA050C94BA060C9402050C94630392
:100210000C949C2E0C940B080C9497050C942A05B6
:100220000C945C2C0C944B2A0C94A3300C947831D5
:100230000C9475030C941A09000021002400270077
:100240002A002D00300033000101000004010701E5
:100250000A0100002200250028002B002E0031009A
:10026000340002010000050108010B01000020001C
:100270002300260029002C002F003200000100007E
:100280000301060109010505050507050808080819
:10029000020202020A0A080804040404010101011E
:1002A0000101010103030303030303030407070719
:1002B0000C0C0C0C0C0C0C0C0202020206060606BE
:1002C000060606060B0B0B0B0B0B0B0B010210208B
:1002D000200808102040102040800201020108047C
:1002E0000201010204081020408080402010080410
:1002F0000201800402018040201008040201080469
:1003000002010102040810204080010204081020AC
:10031000408000000A0B02090C0D0E0807030401BF
:1003200000000000000000000000000000000000CD
:10033000000000000000000000000000000012119A
:10034000100000000000000000000000000000009D
:1003500000000000000000006D1F123211241FBEBB
:10036000CFEFD1E2DEBFCDBF00E00CBF14E0A0E0D4
:10037000B2E0E8EDF8E600E00BBF02C007900D9296
:10038000A435B107D9F727E0A4E5B4E001C01D9278
:10039000A032B207E1F711E0CDEAD1E000E006C0FB
:1003A00021970109802FFE010E943C32CC3AD107EF
:1003B00080E00807A9F70E9481200C945A340C941D
:1003C0000000FC01A089B18982E08C93A485B585E9
:1003D0001C92A685B7858FEC8C93108EA489B58965
:1003E00086E08C93A289B3898C9180618C93A289D9
:1003F000B3898C9188608C93A289B3898C91806831
:100400008C930288F389E02D80818F7D808308950D
:10041000AF92BF92CF92DF92EF92FF920F931F9312
:10042000CF93DF936C017B018B01040F151FEB0150
:100430005E01AE18BF08C017D10759F06991D60107
:10044000ED91FC910190F081E02DC6011995892B69
:1004500079F7C501DF91CF911F910F91FF90EF9038
:10046000DF90CF90BF90AF900895FC01918D828D69
:10047000981761F0A28DAE0FBF2FB11D5D968C91C4
:10048000928D9F5F9F73928F90E008958FEF9FEF03
:100490000895FC01918D828D981731F0828DE80FBF
:1004A000F11D858D90E008958FEF9FEF0895FC0179
:1004B000918D228D892F90E0805C9F4F821B910946
:1004C0008F739927089584ED94E00E94570221E0EC
:1004D000892B09F420E0822F089581E795E00E949E
:1004E000570221E0892B09F420E0822F0895FC01B6
:1004F000A48DA80FB92FB11DA35ABF4F2C91848D85
:1005000090E001968F739927848FA689B7892C93E1
:10051000A089B1898C9180648C93938D848D98137C
:1005200006C00288F389E02D80818F7D8083089545
:10053000EF92FF920F931F93CF93DF93EC0181E033
:10054000888F9B8D8C8D981316C0E889F9898081DE
:1005500085FF11C0EE89FF896083E889F989808170
:100560008064808381E090E0DF91CF911F910F91B3
:10057000FF90EF900895F62E0B8D10E00F5F1F4F48
:100580000F731127E02E8C8D8E110CC00FB607FC57
:10059000FACFE889F989808185FFF5CFCE010E94E5
:1005A0007702F1CFEB8DEC0FFD2FF11DE35AFF4FDA
:1005B000F0820B8FEA89FB8980818062D2CFCF9352
:1005C000DF93EC01888D8823B9F0AA89BB89E8897B
:1005D000F9898C9185FD03C0808186FD0DC00FB621
:1005E00007FCF7CF8C9185FFF2CF808185FFEDCF9F
:1005F000CE010E947702E9CFDF91CF91089580E08C
:1006000090E0892B29F00E946D0281110E94000068
:1006100080E090E0892B29F00E94630281110C9404
:10062000000008958150823108F05AC0E82FF0E0B0
:100630008827E25EFC4F8F4F0C943C323E0342030E
:10064000300336033A03700345034B034F0355034E
:1006500059035D036303670370036B037103750341
:10066000809180008F778093800008958091800032
:100670008F7DF9CF80918000877FF5CF84B58F770C
:1006800084BD089584B58F7DFBCF8091B0008F77B6
:100690008093B00008958091B0008F7DF9CF809154
:1006A00090008F77809390000895809190008F7DC7
:1006B000F9CF80919000877FF5CF8091A0008F7750
:1006C0008093A00008958091A0008F7DF9CF809144
:1006D000A000877FF5CF809120018F778093200144
:1006E0000895809120018F7DF9CF80912001877F2F
:1006F000F5CFCF93DF93282F30E0F901EE5EFC4F6A
:100700008491F901E453FD4FD491F901EA57FD4F6B
:10071000C491CC23A1F081110E941203EC2FF0E0D0
:10072000EE0FFF1FE459FD4FA591B491EC91ED231D
:1007300081E090E009F480E0DF91CF91089580E0BE
:1007400090E0FACF1F93CF93DF93282F30E0F90189
:10075000EE5EFC4F8491F901E453FD4FD491F90111
:10076000EA57FD4FC491CC23A9F0162F81110E94A6
:100770001203EC2FF0E0EE0FFF1FEE5AFD4FA59194
:10078000B4918FB7F894EC91111108C0D095DE2385
:10079000DC938FBFDF91CF911F910895DE2BF8CFAF
:1007A000CF93DF9390E0FC01E453FD4F24918A57EF
:1007B0009D4FFC0184918823D1F090E0880F991F10
:1007C000FC01E85CFD4FA591B491FC01EE5AFD4F90
:1007D000C591D49161110EC09FB7F8948C91E22F0E
:1007E000E0958E238C932881E223E8839FBFDF91DD
:1007F000CF9108958FB7F894EC91E22BEC938FBFD3
:10080000F6CF8230910538F0880F991F880F991F15
:1008100005970197F1F708953FB7F89480916C041C
:1008200090916D04A0916E04B0916F0426B5A89BC1
:1008300005C02F3F19F00196A11DB11D3FBFBA2F72
:10084000A92F982F8827BC01CD01620F711D811D32
:10085000911D42E0660F771F881F991F4A95D1F7B7
:1008600008958F929F92AF92BF92CF92DF92EF92B4
:10087000FF924B015C010E940C046B017C010E9401
:100880000C046C197D098E099F09683E734081052F
:100890009105A8F321E0821A9108A108B10888EE19
:1008A000C80E83E0D81EE11CF11C81149104A10440
:1008B000B10429F7FF90EF90DF90CF90BF90AF90F9
:1008C0009F908F9008952FB7F8946091680470916D
:1008D000690480916A0490916B042FBF08958EE0A3
:1008E00096E00E945702892B11F00C9400000895A5
:1008F00080E090E0892B11F00C946F040895FC01C6
:10090000A089B1898C91A689B78982FD0FC09C917D
:10091000818D8F5F8F73228D821749F0A18DAE0F6D
:10092000BF2FB11D5D969C93818F08958C91089582
:1009300061E080E00C94A20360E080E00C94A203EC
:1009400008958EBD00000DB407FEFDCF8EB508954D
:100950008CBD9DBD0895DF92EF92FF920F931F9380
:10096000CF93DF93D82FD92EC62F7A01890180919A
:10097000AB069091AC060E94A8040E949C048D2DA9
:100980000E94A1048D2F0E94A1048C2F0E94A1041B
:10099000E701E00EF11ECE15DF0521F089910E94DE
:1009A000A104F9CF0E949804C801DF91CF911F9153
:1009B0000F91FF90EF90DF9008951F93CF93DF93F7
:1009C000C82F162FD42F8091AB069091AC060E94B1
:1009D000A8040E949C0480E00E94A104812F0E9430
:1009E000A1048C2F8295880F807E845F0E94A104D1
:1009F0008D2F0E94A1040E94980481E0DF91CF9185
:100A00001F910895CF93DF93EC01898D9A8D892BE7
:100A100041F0E881F9810680F781E02DCE0119953A
:100A2000F4CFDF91CF910895CF93DF931F92CDB78D
:100A3000DEB76983DC01ED91FC910280F381E02D4A
:100A400041E050E0BE016F5F7F4F19950F90DF913D
:100A5000CF9108951F93CF93DF93FB01DC0158964C
:100A60001C921E9257972281211109C023812111C6
:100A700006C02481211103C02581222339F14115AB
:100A8000510521F1EA01DC011C961C91AF014E5F7A
:100A90005F4F612F6295660F607E645F24E030E0F7
:100AA0008CE090E00E94AB044D2F60E170E0812F5C
:100AB0000E94DD044C2F61E170E0812F0E94DD0473
:100AC00081E090E0DF91CF911F91089590E080E068
:100AD000F9CFFC01818D928D0895FC01858996895D
:100AE00008952FE133E0FC0131832083FB0141892C
:100AF000528963897489FC014283538364837583BB
:100B00000895CF93DF931F92CDB7DEB76983DC01E1
:100B1000ED91FC910280F381E02D41E050E0BE01B7
:100B20006F5F7F4F19950F90DF91CF910895FC0172
:100B30009485FB018485981303C081E0983009F403
:100B400080E0089521E0FC018485883009F420E0EC
:100B5000822F08950895CF93DF931F92CDB7DEB70C
:100B60006983DC01ED91FC910280F381E02D41E08D
:100B700050E0BE016F5F7F4F19950F90DF91CF91CD
:100B80000895DC01ED91FC91008CF18DE02D19951B
:100B900091E089270895CF93DF93C82FD62F8091B6
:100BA000AB069091AC060E94A8040E949C0480E0D1
:100BB0000E94A1048D2F0E94A1048C2F8295880F82
:100BC000807E885F0E94A10480E00E94A104C82F5B
:100BD0000E9498048C2FDF91CF910895CF93C82F56
:100BE000462F61E070E00E94DD0461E070E08C2F30
:100BF0000E94CB058111F9CFCF910895CF93C82FD3
:100C000060E170E00E94EE054FEF62E070E08C2F33
:100C1000CF910C94DD040F931F93CF93DF93C82FD4
:100C2000D62F8A010E94FE054D2F70E060E08C2FC8
:100C30000E94DD0401151105B9F0412F64E070E058
:100C40008C2F0E94DD04402F65E070E08C2F0E9405
:100C5000DD0461E070E08C2F0E94EE0581E0DF9101
:100C6000CF911F910F9108950091D1041091D2045A
:100C70000F5F1F4F1093D2040093D104DECFCF93A8
:100C8000DF93EC018C85883061F00E94FE05EC85D5
:100C9000F0E0EE0FFF1FE95AFB4F1182108288E04F
:100CA0008C87DF91CF910895AF92BF92CF92DF9260
:100CB000EF92FF920F931F93CF93DF93F82E5B0178
:100CC0006A01E22E68E270E00E94CB05082F10E076
:100CD000102F002769E270E08F2D0E94CB05E801FC
:100CE000C80FD11D8091AB069091AC060E94A8045C
:100CF0000E949C048D2F0E94A1048C2F0E94A104AD
:100D00008F2D8295880F807E885E0E94A1048501C8
:100D1000AC0CBD1C80E00E94A104F80181938F01FE
:100D2000EA15FB05B9F70E949804E11018C0CC0D34
:100D3000DD1D4D2F68E270E08F2D0E94DD044C2FE9
:100D400069E270E08F2DDF91CF911F910F91FF909D
:100D5000EF90DF90CF90BF90AF900C94DD04DF91C7
:100D6000CF911F910F91FF90EF90DF90CF90BF90A8
:100D7000AF9008950F931F93CF93DF931F92CDB73A
:100D8000DEB78C01DC01ED91FC910480F581E02D52
:100D90001995892B91F021E041E050E0BE016F5F91
:100DA0007F4FF80184850E945406898190E00F905E
:100DB000DF91CF911F910F9108958FEF9FEFF7CFA4
:100DC000CF93DF931F92CDB7DEB7FC01218D328D1B
:100DD0008FEF9FEF232B59F021E041E050E0BE015F
:100DE0006F5F7F4F84850E945406898190E00F9049
:100DF000DF91CF910895BF92CF92DF92EF92FF9251
:100E00000F931F93CF93DF93B82E6B017A01890163
:100E100064E270E00E94CB05C82F65E270E08B2D84
:100E20000E94CB05D0E0DC2FCC278C0D9D2D911D91
:100E3000C80FD91F6B2D6295660F607E6C5E98019E
:100E4000A701CE010E94AB04C00FD11F4D2F64E259
:100E500070E08B2D0E94DD044C2F65E270E08B2D3D
:100E6000DF91CF911F910F91FF90EF90DF90CF9086
:100E7000BF900C94DD041F93CF93DF93182F66E28D
:100E800070E00E94CB05C82FD0E0DC2FCC2767E2B2
:100E900070E0812F0E94CB058C0F9D2F911DDF915B
:100EA000CF911F910895FF920F931F93CF93DF93DC
:100EB000F82E10E000E08F2D0E943B07EC01892BFB
:100EC00021F08F2D0E943B078C01C017D10799F7A5
:100ED000CE01DF91CF911F910F91FF900895FC01FA
:100EE0008485883011F00C94530790E080E00895D9
:100EF0001F93CF93DF93182F60E270E00E94CB0521
:100F0000C82FD0E0DC2FCC2761E270E0812F0E9457
:100F1000CB058C0F9D2F911DDF91CF911F910895CF
:100F2000FF920F931F93CF93DF93F82E10E000E012
:100F30008F2D0E947807EC01892B21F08F2D0E94C4
:100F400078078C01C017D10799F7CE01DF91CF91B7
:100F50001F910F91FF900895AF92BF92CF92DF92B1
:100F6000FF920F931F93CF93DF938C015B01EA01F4
:100F7000FC01C788D08CF4848F2D0E9490078C17B9
:100F80009D0720F48F2D0E949007EC019E01A50182
:100F9000B6018F2D0E94FB06F8018789908D8C0F7A
:100FA0009D1F908F878BCE01DF91CF911F910F9165
:100FB000FF90DF90CF90BF90AF900895FC018485A3
:100FC000883021F063E070E00C94CB0580E0089558
:100FD000CF93DF93FC0124852830D9F0EC010E94E7
:100FE000DE07843189F0882379F0883169F021E0C7
:100FF0008C3159F4E881F9810480F581E02DCE012E
:10100000199521E0892B09F420E0822FDF91CF91FF
:10101000089580E0FBCFCF92DF92EF92FF92CF93C3
:10102000DF93EC018C85883089F168E070E00E94E4
:10103000EE050E9463046B017C01CE010E94DE0775
:10104000882391F00E9463046C197D098E099F0921
:10105000683E73408105910538F461E070E080E0FE
:1010600090E00E943104E9CFCE010E94DE07882380
:1010700019F08C850E94FE05EC85F0E0EE0FFF1F55
:10108000E95AFB4F1182108288E08C87DF91CF9163
:10109000FF90EF90DF90CF900895CF92DF92EF9284
:1010A000FF921F93CF93DF93182F6B017A010E9459
:1010B0005307EC010097D9F463E070E0812F0E94A0
:1010C000CB05843159F0882349F0C1E0D0E08C3160
:1010D00011F4D0E0C0E0D195C195D109CE01DF91E6
:1010E000CF911F91FF90EF90DF90CF900895E81679
:1010F000F9060CF4E7011C161D0684F720E0AE018A
:10110000B601812F0E94540660E470E0812F0E9496
:10111000EE05E4CFCF93DF93FC01218D328D2115B5
:10112000310529F48FEF9FEFDF91CF910895EC0106
:1011300084854217530708F0A9010E944D0818162C
:10114000190684F7298D3A8D281B390B3A8F298F80
:10115000EBCF0F931F93CF93DF931F92CDB7DEB7E3
:10116000FC01218D328D232B41F48FEF9FEF0F90E7
:10117000DF91CF911F910F9108958C0141E050E0D4
:10118000BE016F5F7F4FFC0184850E944D081816D9
:1011900019065CF7F801818D928D0197928F818FEE
:1011A000898190E0E4CFFC0184850C944D08CF93B5
:1011B000DF931F92CDB7DEB741E050E0BE016F5F15
:1011C0007F4FFC0184850E944D081816190634F4DF
:1011D000898190E00F90DF91CF9108958FEF9FEF7D
:1011E000F9CFCF93FC01C48560E270E08C2F0E94A0
:1011F000EE0562E070E08C2F0E94CB0584FD11C0EB
:1012000062E070E08C2F0E94CB0583FFF2CF48E1B3
:1012100062E070E08C2F0E94DD0490E080E0CF91CE
:10122000089540E162E070E08C2F0E94DD0481E0CF
:1012300090E0F5CFEF92FF921F93CF93DF93FC01E5
:101240002485283039F080E0DF91CF911F91FF9005
:10125000EF9008957B01EC0110E063E070E0812FD6
:101260000E94CB0581110EC01C878C85883059F3F4
:10127000FE86ED861A8E198EA70162E00E940B068B
:1012800081E0E2CF883181F31F5F183031F7EDCF75
:101290008F929F92AF92BF92CF92DF92EF92FF9286
:1012A0000F931F93CF93DF93CDB7DEB72D970FB674
:1012B000F894DEBF0FBECDBF7C0110E000E098EED9
:1012C000892E93E0992EA12CB12C25EFC22E22E07D
:1012D000D22E1C821B828D829E82AF82B886DA82D9
:1012E000C9820D87CE0101960E94DE07811132C0AE
:1012F000D70114964D915C9161E0802F0E940B06FE
:1013000063E070E0802F0E94CB05833129F462E016
:1013100070E0802F0E94EE05000F111FF801E95ABE
:10132000FB4FD70114968D919C91918380832D96CC
:101330000FB6F894DEBF0FBECDBFDF91CF911F91E6
:101340000F91FF90EF90DF90CF90BF90AF909F9064
:101350008F9008950F5F1F4F0830110509F0B9CF26
:10136000E6CF8F929F92AF92BF92CF92DF92EF9291
:10137000FF920F931F93CF936C015B017A01FC01E5
:10138000C485C830A1F481E090E0F60193838283A4
:10139000F12CE12CC701CF911F910F91FF90EF909D
:1013A000DF90CF90BF90AF909F908F9008958A016B
:1013B0004130584010F000E018E08C2F0E94900758
:1013C0004C0163E070E08C2F0E94CB05873111F057
:1013D0008C3109F58016910680F39801A50170E023
:1013E00060E08C2F0E94FB0660E270E08C2F0E9470
:1013F000EE0562E070E08C2F0E94CB0584FD0EC0EC
:1014000063E070E08C2F0E94CB058111F2CF8C2F0E
:101410000E94FE05B8CF10E000E0DFCF40E162E0BF
:1014200070E08C2F0E94DD04012B09F0B3CFABCF0D
:101430002F923F924F925F926F927F928F929F92E4
:10144000AF92BF92CF92DF92EF92FF920F931F93D2
:10145000CF93DF93CDB7DEB72F970FB6F894DEBFEB
:101460000FBECDBF8C016B015A0187E594E09F87C9
:101470008E871C01912CF12CE12C38EE432E33E0A9
:10148000532E612C712C1C821B824D825E826F82D6
:101490007886A5EFB2E0BA83A9839D86F1012191F8
:1014A00031911F01D80114968D919C91281739070D
:1014B000B9F4CE0101960E94DE07843109F46DC0B3
:1014C000CE0101960E94DE078C3151F4CE010196C7
:1014D0000E946F07892B21F4CE0101960E940B0810
:1014E0009394B8E09B12CFCFEF2841F4D801ED914F
:1014F000FC910480F581E02DC8011995312CF12C67
:10150000E12C88EE482E83E0582E612C712C95EF4B
:10151000892E92E0992E1C821B824D825E826F8200
:1015200078869A8289823D86EE85FF852191319168
:10153000FF87EE87D80114968D919C912817390763
:1015400071F4CE0101960E94DE07873141F4A501B6
:10155000B601CE0101960E94B109E80EF91E33943E
:10156000B8E03B12D8CFC7012F960FB6F894DEBF74
:101570000FBECDBFDF91CF911F910F91FF90EF90E4
:10158000DF90CF90BF90AF909F908F907F906F90A3
:101590005F904F903F902F900895EE24E394F12CAC
:1015A0009FCFDF92EF92FF920F931F93CF93DF9322
:1015B000FC012485283051F090E080E0DF91CF914C
:1015C0001F910F91FF90EF90DF9008957A01EB014A
:1015D0008C01D12C63E070E08D2D0E94CB05811130
:1015E00028C0F801D486F8018485883029F3209139
:1015F0000002309101022F5F3F4F19F13093010239
:1016000020930002409100025091010261E00E948B
:101610000B068A818F3FC1F48B818F3F01F58C814E
:101620008F3FE9F48D818F3FD1F488E0F801848702
:10163000C3CF8B7F8831A9F2D394F8E0DF12CACFF1
:10164000D2CF20E034E0DACF811109C08B81811143
:1016500006C08C81811103C08D81882331F3E11490
:10166000F10419F3F801D484AE014E5F5F4F6D2D84
:101670006295660F607E645F24E030E08CE090E06D
:101680000E94AB044F2D60E170E08D2D0E94DD04BF
:101690004E2D61E170E08D2D0E94DD0464E070E06C
:1016A0008D2D0E94EE05C8010E94DE07873161F092
:1016B00061E070E080E090E00E943104C8010E9487
:1016C000DE078111F0CFB1CF81E090E077CFDC0170
:1016D000ED91FC91008CF18DE02D199460E085E096
:1016E0000E94A20360E086E00C94A2038091810432
:1016F00090918204019711F40C946E0B80917F04F9
:10170000909180040197C1F780917D0490917E04AF
:10171000019791F760E085E00E94A20361E086E016
:101720000C94A2038091890490918A04019711F48A
:101730000C946E0B60E086E00E94A20361E085E0FD
:101740000C94A20360E08AE20E94A20360E089E2B6
:101750000C94A20380917F0490918004019711F46E
:101760000C94A20B60E08AE20E94A20361E089E28D
:101770000C94A2038091870490918804019711F43E
:101780000C94A20B60E089E20E94A20361E08AE26D
:101790000C94A20360E08BE20E94A20360E08CE262
:1017A0000C94A2038CE10E94790390937E048093B1
:1017B0007D04019711F40C94CA0B60E08BE20E9447
:1017C000A20361E08CE20C94A20380919A049091B0
:1017D0009B04019711F40C94CA0B60E08CE20E9408
:1017E000A20361E08BE20C94A20360E08DE20E9410
:1017F000A20360E088E00C94A20360E08DE20E9406
:10180000A20361E088E00C94A20360E088E00E94FB
:10181000A20361E08DE20C94A20361E089E00E94E2
:10182000A20361E087E00E94A20361E08FE20C94D2
:10183000A20361E089E00E94A20360E087E00E94C9
:10184000A20361E08FE20C94A20360E089E00E94B1
:10185000A20360E087E00E94A20360E08FE20C94A4
:10186000A20361E081E30E94A2036CE271E080E0E8
:1018700090E00E94310460E081E30C94A20360E0F8
:1018800085E30C94A20360E084E20C94A20361E07F
:1018900085E30C94A20361E084E20C94A2030E940D
:1018A000250C0E94F50B0E94CA0B0E94A20B0C94FF
:1018B0006E0B86E10E94790387E10E947903909381
:1018C0008C0480938B0488E30E94790390938604B0
:1018D000809385048FE10E94790387E30E94790356
:1018E00090938204809381048AE10E94790390930B
:1018F0008A04809389048BE10E9479039093800489
:1019000080937F048EE10E947903909388048093F2
:1019100087048CE10E94790390937E0480937D0478
:101920008DE10E94790390939B0480939A048CE349
:101930000E94790380E40E94790390937B04809352
:101940007A0481E40E947903909379048093780467
:1019500082E40E947903909377048093760483E471
:101960000E947903909384048093830484E40E940A
:101970007903909375048093740481E20E94790343
:10198000909393048093920483E20E94790390934E
:1019900091048093900480E20E94790390938F04D5
:1019A00080938E048FE30E94790390937304809355
:1019B00072048DE30E947903909371048093700404
:1019C0008FE10E9479039093CF048093CE04019716
:1019D00071F482E00E9479039093950480939404BB
:1019E00083E00E947903909397048093960408956E
:1019F000CF930E94590C80918104909182040197A9
:101A0000A1F48091890490918A04892B51F40E9459
:101A1000920B8AE10E94790390938A04809389044F
:101A2000F0CF0E946E0B0E94310C8091890490913E
:101A30008A04019709F04EC0C0917C04C1111AC0FC
:101A400080917F04909180040197A1F48EE10E941F
:101A50007903909388048093870480918704909100
:101A60008804892B19F40E94BA0BF0CF0E94A20BB4
:101A70000E94310C8091870490918804019751F560
:101A8000C13041F580917D0490917E04019711F55C
:101A90008DE10E94790390939B0480939A04809136
:101AA0009A0490919B04892B19F40E94E50BF0CFC6
:101AB0000E94CA0B0E94310C80918D04813019F470
:101AC00083E080938D0480918D04823019F483E04B
:101AD00080938D04CF910895FB0101900020E9F7D8
:101AE0003197AF01461B570BDC01ED91FC91028051
:101AF000F381E02D19948F929F92AF92BF92EF9253
:101B0000FF920F931F93CF93DF93CDB7DEB7A197CB
:101B10000FB6F894DEBF0FBECDBF7C01FA01CB013A
:101B200019A2223008F42AE08E010F5D1F4F822E89
:101B3000912CB12CA12CBF01A50194010E941A3255
:101B4000F901CA016A300CF5605DD8016E938D0110
:101B5000232B242B252B79F790E080E0109721F0A0
:101B6000BD01C7010E946C0DA1960FB6F894DEBFAF
:101B70000FBECDBFDF91CF911F910F91FF90EF90DE
:101B8000BF90AF909F908F900895695CDECF0F93C8
:101B90001F93CF93DF93EC012AE00E947B0D8C0111
:101BA00061E273E0CE010E946C0D800F911FDF9106
:101BB000CF911F910F9108958F929F92AF92BF92F4
:101BC000CF92DF92EF92FF920F931F93CF93DF9309
:101BD0007C01EB016C0182E0C80ED11C4701E5E0FD
:101BE0008E0E911C10E000E0F60141916F0150E073
:101BF00070E060E02AE0CE010E947B0D5C01E8818C
:101C0000F9810190F081E02D6EE2CE0119958A0DE7
:101C10009B1D080F191FC814D90431F7F70145811E
:101C200050E070E060E02AE0CE010E947B0D800F62
:101C3000911FDF91CF911F910F91FF90EF90DF9057
:101C4000CF90BF90AF909F908F9008950F931F9368
:101C5000CF93DF93EC010E946C0D8C0161E273E085
:101C6000CE010E946C0D800F911FDF91CF911F91CB
:101C70000F9108950F931F93CF93DF93EC01FB0116
:101C800044815581608171810E9408028C0161E26A
:101C900073E0CE010E946C0D800F911FDF91CF91F8
:101CA0001F910F910895EF92FF920F931F93CF937F
:101CB000DF938C01D0E0C0E0EE24E394F090D004F8
:101CC00081E0F8127DC08091A204823309F478C0CB
:101CD0000E944F0C0E94F50B0E943F0C81EF96E092
:101CE0000E946F07892B09F440C081EF96E00E94A3
:101CF000D7088B3729F58093A104F0925404909172
:101D0000A1049B3791F58D3781F5E0915404F0E003
:101D1000EF55FB4F808310925404F090540482E0FE
:101D20008F15F8F0E0915604F0E0EB54FB4F608122
:101D300081E795E00E949802F394F0925404EDCF6D
:101D40009091A1049B37D9F68D37C9F29091540434
:101D5000E92FF0E0EF55FB4F80839F5F9093540491
:101D6000CECFE092D00410925404B8018EE096E0F9
:101D70000E943A0E4091C9045091CA046091CB046C
:101D80007091CC048EE096E00E94C70DB80184EDFE
:101D900094E00E943A0E4091C9045091CA046091A7
:101DA000CB047091CC0484ED94E00E94C70DCA303E
:101DB000D10518F421960E94310C1092CD047ECFEB
:101DC00081E08093CD04DF91CF911F910F91FF901F
:101DD000EF900895FC01808191810C94E0320F9383
:101DE0001F93CF93DF93EC0188819981009759F07D
:101DF0002A813B812617370730F081E0DF91CF91B0
:101E00001F910F9108958B016F5F7F4F0E9469337F
:101E1000009759F0998388831B830A832C813D8125
:101E2000232B59F7FC011082E8CF80E0E7CFEF9237
:101E3000FF920F931F93CF93DF93EC017B011982E5
:101E400018821B821A821D821C82FB0101900020D5
:101E5000E9F731978F01061B170BB8010E94EF0EAF
:101E600028813981811113C02115310519F0C9016B
:101E70000E94E032198218821D821C821B821A8203
:101E8000DF91CF911F910F91FF90EF9008951D83E7
:101E90000C83B701C901DF91CF911F910F91FF9082
:101EA000EF900C9453340F931F93CF93DF93CDB7E0
:101EB000DEB72C970FB6F894DEBF0FBECDBF63E23E
:101EC00073E0CE0107960E94170F84ED94E00E9404
:101ED0005702892B09F44DC084ED94E00E9435022D
:101EE0008B3779F58093B5048093A10491E09093AA
:101EF00056049091B5049B37E1F58D37D1F50091EB
:101F00005604202F30E0F901EB54FB4F80832F550E
:101F10003B4FF901808381E08093D00410925504F7
:101F200010915504011718F1E12FF0E0EB54FB4F2D
:101F3000608181E795E00E9498021F5F109355042D
:101F4000EFCF9091B5049B37A1F68D3791F2909128
:101F50005604933070F6292F30E0F901EB54FB4F13
:101F600080832F553B4FF90180839F5FC0CF109234
:101F7000560463E273E0CE0101960E94170F8EE0D3
:101F800096E00E945702892B09F44DC08EE096E03E
:101F90000E9435028B3779F58093B5048093A104B4
:101FA00091E0909356049091B5049B37E1F58D37FD
:101FB000D1F500915604202F30E0F901EB54FB4F8E
:101FC00080832F553B4FF901808381E08093D004BB
:101FD0001092550410915504011718F1E12FF0E00B
:101FE000EB54FB4F608181E795E00E9498021F5FF0
:101FF00010935504EFCF9091B5049B37A1F68D3720
:1020000091F290915604933070F6292F30E0F90147
:10201000EB54FB4F80832F553B4FF90180839F5F2B
:10202000C0CF10925604CE0101960E94EA0ECE0156
:1020300007960E94EA0E2C960FB6F894DEBF0FBEEC
:10204000CDBFDF91CF911F910F9108950F931F93F3
:10205000CF93DF938C01D0E0C0E08091B60482334F
:10206000B9F10E944F0C0E94F50B0E943F0C0E9498
:10207000530F8091B604823359F1B8018EE096E097
:102080000E943A0E4091C9045091CA046091CB0459
:102090007091CC048EE096E00E94C70DB80184EDEB
:1020A00094E00E943A0E4091C9045091CA04609194
:1020B000CB047091CC0484ED94E00E94C70DCA302B
:1020C000D10518F421960E94310C1092CD04C5CF91
:1020D00081E08093CD04DF91CF911F910F910895FE
:1020E0000F931F93CF93DF938C01EC010990002095
:1020F000E9F72197C81BD90BBE0180E197E00E9448
:10210000EF0E2091100730911107811117C0211592
:10211000310519F0C9010E94E032109211071092A6
:1021200010071092150710921407109213071092BF
:102130001207DF91CF911F910F910895D09315074A
:10214000C0931407B801C901DF91CF911F910F917E
:102150000C945334CF92DF92EF92FF92CF93DF93A0
:102160000E944B0C1092C9041092CA041092CB0426
:102170001092CC0484E293E00E94701060E177E05A
:1021800084ED94E00E943A0E60E177E084ED94E003
:102190000E943A0E60E177E084ED94E00E943A0EEE
:1021A00060E177E084ED94E00E943A0E60E177E030
:1021B00084ED94E00E943A0E60E177E084ED94E0D3
:1021C0000E943A0E60E177E084ED94E00E943A0EBE
:1021D00060E177E08EE096E00E943A0E60E177E001
:1021E0008EE096E00E943A0E60E177E08EE096E0A5
:1021F0000E943A0E60E177E08EE096E00E943A0E8F
:1022000060E177E08EE096E00E943A0E60E177E0D0
:102210008EE096E00E943A0E60E177E08EE096E074
:102220000E943A0E1092C9041092CA041092CB0474
:102230001092CC04C090C904D090CA04E090CB04A2
:10224000F090CC048AEAC816D104E104F104E0F469
:102250000E94470CC0919D04D0919E04CE010E9423
:1022600001040E943F0CCE010E9401048FEFC81AA6
:10227000D80AE80AF80AC092C904D092CA04E092C7
:10228000CB04F092CC04D6CF0E94310C1092C9043A
:102290001092CA041092CB041092CC040E943F0CFE
:1022A0008BE293E00E94701060E177E084ED94E0AF
:1022B0000E943A0E60E177E084ED94E00E943A0ECD
:1022C00060E177E084ED94E00E943A0E60E177E00F
:1022D00084ED94E00E943A0E60E177E084ED94E0B2
:1022E0000E943A0E60E177E084ED94E00E943A0E9D
:1022F00060E177E08EE096E00E943A0E60E177E0E0
:102300008EE096E00E943A0E60E177E08EE096E083
:102310000E943A0E60E177E08EE096E00E943A0E6D
:1023200060E177E08EE096E00E943A0E60E177E0AF
:102330008EE096E00E943A0E60E177E08EE096E053
:10234000DF91CF91FF90EF90DF90CF900C943A0EF9
:10235000CF92DF92EF92FF92CF93DF930E94430CD4
:102360001092C9041092CA041092CB041092CC04AB
:1023700082E393E00E94701062E373E081E795E0EE
:102380000E94260E62E373E084ED94E00E94260E24
:1023900062E373E084ED94E00E94260E62E373E052
:1023A00084ED94E00E94260E62E373E084ED94E0F5
:1023B0000E94260E62E373E08EE096E00E94260EF5
:1023C00062E373E08EE096E00E94260E62E373E023
:1023D0008EE096E00E94260E62E373E08EE096E0C7
:1023E0000E94260E62E373E08EE096E00E94260EC5
:1023F00062E373E08EE096E00E94260E1092C9041C
:102400001092CA041092CB041092CC04C090C9045C
:10241000D090CA04E090CB04F090CC048AEAC816AD
:10242000D104E104F104E0F40E94470CC0919D0442
:10243000D0919E04CE010E9401040E943F0CCE0167
:102440000E9401048FEFC81AD80AE80AF80AC0925D
:10245000C904D092CA04E092CB04F092CC04D6CF47
:1024600089E393E00E94701069E373E084ED94E0E7
:102470000E94260E69E373E084ED94E00E94260E2C
:1024800069E373E084ED94E00E94260E69E373E053
:1024900084ED94E00E94260E69E373E084ED94E0FD
:1024A0000E94260E69E373E084ED94E00E94260EFC
:1024B00069E373E084ED94E00E94260E69E373E023
:1024C00084ED94E00E94260E69E373E08EE096E0CE
:1024D0000E94260E69E373E08EE096E00E94260ECD
:1024E00069E373E08EE096E00E94260E69E373E0F4
:1024F0008EE096E00E94260E69E373E08EE096E09F
:102500000E94260E69E373E08EE096E00E94260E9C
:1025100069E373E08EE096E00E94260E69E373E0C3
:102520008EE096E00E94260E1092C9041092CA0412
:102530001092CB041092CC04DF91CF91FF90EF90DA
:10254000DF90CF900C943F0C0F931F93CF93DF93AA
:1025500000D000D0CDB7DEB71092C9041092CA04E3
:102560001092CB041092CC0482E00E9479039093E5
:10257000950480939404892B09F010C180919404F0
:1025800090919504892B89F582E00E9479039093BC
:102590009504809394040E94050C8091C904909145
:1025A000CA04A091CB04B091CC040196A11DB11D29
:1025B0008093C9049093CA04A093CB04B093CC0435
:1025C0001092CD048139904DA340B105B8F260E47A
:1025D00073E0CE0101960E94170FCE0101960E9472
:1025E000530ECE0101960E94EA0E64EF71E080E086
:1025F00090E00E94310482E00E9479039093950458
:10260000809394048091CD048111BDC08091940485
:1026100090919504019751F40E94050C82E00E946C
:1026200079039093950480939404F0CF1092C90499
:102630001092CA041092CB041092CC0482E00E9443
:1026400079039093950480939404809194049091DD
:102650009504892B51F482E00E94790390939504AC
:10266000809394040E94050CF0CF0E94F50B6AE061
:1026700070E080E090E00E9431040E94F50B0AE0D7
:1026800010E06AE473E08EE096E00E94260E6AE4B1
:1026900073E08EE096E00E94260E6AE473E08EE01E
:1026A00096E00E94260E6AE473E08EE096E00E94B7
:1026B000260E6AE473E08EE096E00E94260E6AE43D
:1026C00073E08EE096E00E94260E6AE473E08EE0EE
:1026D00096E00E94260E6AE473E08EE096E00E9487
:1026E000260E6AE473E084ED94E00E94260E6AE40C
:1026F00073E081E795E00E94260E6AE473E08EE0C5
:1027000096E00E94260E6AE473E084ED94E00E9455
:10271000260E6AE473E081E795E00E94260E6AE4E3
:1027200073E08EE096E00E94260E6AE473E084ED8A
:1027300094E00E94260E6AE473E081E795E00E942F
:10274000260E6AE473E08EE096E00E94260E6AE4AC
:1027500073E084ED94E00E94260E6AE473E081E762
:1027600095E00E94260E8AE493E00E9470100150CA
:10277000110909F086CF68EB7BE080E090E00E94D1
:1027800031040E94530F26960FB6F894DEBF0FBE99
:10279000CDBFDF91CF911F910F9108950E94F50B4E
:1027A0006AE473E08EE096E00E94260E6AE473E02D
:1027B0008EE096E00E94260E6AE473E08EE096E0DA
:1027C0000E94260E6AE473E08EE096E00E94260ED8
:1027D0006AE473E08EE096E00E94260E6AE473E0FD
:1027E0008EE096E00E94260E6AE473E08EE096E0AA
:1027F0000E94260E6AE473E08EE096E00E94260EA8
:102800006AE473E08EE096E00E94260E6AE473E0CC
:102810008EE096E00E94260E6AE473E08EE096E079
:102820000E94260E6AE473E084ED94E00E94260E76
:102830006AE473E081E795E00E94260E6AE473E0A3
:102840008EE096E00E94260E6AE473E084ED94E048
:102850000E94260E6AE473E081E795E00E94260E4E
:102860006AE473E08EE096E00E94260E6AE473E06C
:1028700084ED94E00E94260E6AE473E081E795E01F
:102880000E94260E6AE473E08EE096E00E94260E17
:102890006AE473E084ED94E00E94260E6AE473E03B
:1028A00081E795E00E94260E8AE493E00E94701072
:1028B0006ACF0F931F93CF93DF9300D000D0CDB793
:1028C000DEB70E94430C1092C9041092CA04109201
:1028D000CB041092CC0482E00E947903909395047B
:1028E00080939404892B09F052C1809194049091B3
:1028F0009504892BD9F582E00E9479039093950481
:10290000809394040E94470C00919D0410919E04B2
:10291000C8010E9401040E943F0CC8010E940104EA
:102920008091C9049091CA04A091CB04B091CC04C9
:102930000196A11DB11D8093C9049093CA04A09370
:10294000CB04B093CC0481399F45A140B10568F216
:1029500061E573E0CE0101960E94170FCE0101964A
:102960000E94530ECE0101960E94EA0E8091CD0482
:10297000811180C01092C9041092CA041092CB0435
:102980001092CC048091940490919504019749F59C
:1029900082E00E94790390939504809394040E94AE
:1029A000470C00919D0410919E04C8010E940104EF
:1029B0000E943F0CC8010E9401048091C9049091BB
:1029C000CA04A091CB04B091CC040196A11DB11D05
:1029D0008093C9049093CA04A093CB04B093CC0411
:1029E000D1CF1092C9041092CA041092CB04109255
:1029F000CC048091940490919504892BD9F582E0C0
:102A00000E94790390939504809394040E94470C4C
:102A100000919D0410919E04C8010E9401040E942F
:102A20003F0CC8010E9401048091C9049091CA041E
:102A3000A091CB04B091CC040196A11DB11D80934F
:102A4000C9049093CA04A093CB04B093CC048139F9
:102A50009F45A140B10568F26BE573E0CE01019698
:102A60000E94170FCE0101960E94530ECE010196CF
:102A70000E94EA0E0E943F0C8091CD0481117CC01F
:102A80001092C9041092CA041092CB041092CC0484
:102A90000E943F0C0E94310C6AE473E08EE096E0E5
:102AA0000E94260E6AE473E08EE096E00E94260EF5
:102AB0006AE473E08EE096E00E94260E6AE473E01A
:102AC0008EE096E00E94260E6AE473E08EE096E0C7
:102AD0000E94260E6AE473E08EE096E00E94260EC5
:102AE0006AE473E08EE096E00E94260E6AE473E0EA
:102AF00084ED94E00E94260E6AE473E081E795E09D
:102B00000E94260E6AE473E08EE096E00E94260E94
:102B10006AE473E084ED94E00E94260E6AE473E0B8
:102B200081E795E00E94260E6AE473E08EE096E06D
:102B30000E94260E6AE473E084ED94E00E94260E63
:102B40006AE473E081E795E00E94260E6AE473E090
:102B50008EE096E00E94260E6AE473E084ED94E035
:102B60000E94260E6AE473E081E795E00E94260E3B
:102B70008AE493E00E94701026960FB6F894DEBFA8
:102B80000FBECDBFDF91CF911F910F9108950E948D
:102B90003F0C6AE473E08EE096E00E94260E6AE441
:102BA00073E08EE096E00E94260E6AE473E08EE009
:102BB00096E00E94260E6AE473E08EE096E00E94A2
:102BC000260E6AE473E08EE096E00E94260E6AE428
:102BD00073E08EE096E00E94260E6AE473E08EE0D9
:102BE00096E00E94260E6AE473E08EE096E00E9472
:102BF000260E6AE473E08EE096E094CF0F931F9365
:102C0000CF93DF9300D000D0CDB7DEB70E94430C46
:102C10001092C9041092CA041092CB041092CC04F2
:102C200082E00E9479039093950480939404892B09
:102C300009F05CC18091940490919504892BD9F599
:102C400082E00E94790390939504809394040E94FB
:102C5000470C00919D0410919E04C8010E9401043C
:102C60000E943F0CC8010E9401048091C904909108
:102C7000CA04A091CB04B091CC040196A11DB11D52
:102C80008093C9049093CA04A093CB04B093CC045E
:102C900081349C49A105B10568F261E573E0CE017C
:102CA00001960E94170FCE0101960E942610CE01B8
:102CB00001960E94EA0E0E943F0C8091CD04811182
:102CC00082C01092C9041092CA041092CB041092D0
:102CD000CC048091940490919504019749F582E089
:102CE0000E94790390939504809394040E94470C6A
:102CF00000919D0410919E04C8010E9401040E944D
:102D00003F0CC8010E9401048091C9049091CA043B
:102D1000A091CB04B091CC040196A11DB11D80936C
:102D2000C9049093CA04A093CB04B093CC04D1CF30
:102D30000E943F0C1092C9041092CA041092CB0456
:102D40001092CC048091940490919504892BD9F52C
:102D500082E00E94790390939504809394040E94EA
:102D6000470C00919D0410919E04C8010E9401042B
:102D70000E943F0CC8010E9401048091C9049091F7
:102D8000CA04A091CB04B091CC040196A11DB11D41
:102D90008093C9049093CA04A093CB04B093CC044D
:102DA00081349C49A105B10568F26BE573E0CE0161
:102DB00001960E94170FCE0101960E942610CE01A7
:102DC00001960E94EA0E0E943F0C8091CD04811171
:102DD00082C01092C9041092CA041092CB041092BF
:102DE000CC040E943F0C0E94310C6AE473E08EE038
:102DF00096E00E94260E6AE473E08EE096E00E9460
:102E0000260E6AE473E08EE096E00E94260E6AE4E5
:102E100073E08EE096E00E94260E6AE473E08EE096
:102E200096E00E94260E6AE473E08EE096E00E942F
:102E3000260E6AE473E08EE096E00E94260E6AE4B5
:102E400073E08EE096E00E94260E6AE473E084ED63
:102E500094E00E94260E6AE473E081E795E00E9408
:102E6000260E6AE473E08EE096E00E94260E6AE485
:102E700073E084ED94E00E94260E6AE473E081E73B
:102E800095E00E94260E6AE473E08EE096E00E94D0
:102E9000260E6AE473E084ED94E00E94260E6AE454
:102EA00073E081E795E00E94260E6AE473E08EE00D
:102EB00096E00E94260E6AE473E084ED94E00E949E
:102EC000260E6AE473E081E795E00E94260E85E60F
:102ED00093E00E94701026960FB6F894DEBF0FBEE6
:102EE000CDBFDF91CF911F910F9108950E943F0CAC
:102EF0006AE473E08EE096E00E94260E6AE473E0D6
:102F00008EE096E00E94260E6AE473E08EE096E082
:102F10000E94260E6AE473E08EE096E00E94260E80
:102F20006AE473E08EE096E00E94260E6AE473E0A5
:102F30008EE096E00E94260E6AE473E08EE096E052
:102F40000E94260E6AE473E08EE096E00E94260E50
:102F50006AE473E084ED94E00E94260E6AE473E074
:102F600081E795E00E94260E6AE473E08EE096E029
:102F70000E94260E6AE473E084ED94E00E94260E1F
:102F80006AE473E081E795E00E94260E6AE473E04C
:102F90008EE096E00E94260E6AE473E084ED94E0F1
:102FA0000E94260E6AE473E081E795E00E94260EF7
:102FB0006AE473E08EE096E00E94260E6AE473E015
:102FC00084ED94E00E94260E6AE473E081E795E0C8
:102FD0000E94260E8AE493E07CCF0F931F93CF9339
:102FE000DF9300D000D0CDB7DEB70E944B0C10921B
:102FF000C9041092CA041092CB041092CC0483E04E
:103000000E9479039093970480939604892B09F08A
:1030100021C18091960490919704892BE9F583E072
:103020000E94790390939704809396040E94470C22
:1030300000919D0410919E04C8010E9401040E9409
:103040003F0CC8010E9401048091C9049091CA04F8
:10305000A091CB04B091CC040196A11DB11D809329
:10306000C9049093CA04A093CB04B093CC041092EB
:10307000CD0481399F45A140B10558F26CE673E05B
:10308000CE0101960E94170FCE0101960E94530EA9
:10309000CE0101960E94EA0E0E943F0C8091CD0461
:1030A0008111CDC01092C9041092CA041092CB04B1
:1030B0001092CC0483E00E9479039093970480934C
:1030C000960482E390E090939E0480939D04809107
:1030D0009604909197040197A1F483E00E947903EC
:1030E00090939704809396040E94470C82E390E0AB
:1030F0000E9401040E943F0C82E390E00E940104C0
:10310000E6CF0E943F0C83E00E94790390939704DE
:10311000809396048091960490919704892BC9F529
:1031200083E00E94790390939704809396040E9411
:10313000470C82E390E00E9401040E943F0C82E36E
:1031400090E00E9401048091C9049091CA04A0916A
:10315000CB04B091CC040196A11DB11D8093C9048C
:103160009093CA04A093CB04B093CC0481399F45BB
:10317000A140B10578F26CE673E0CE0101960E94A1
:10318000170FCE0101960E94530ECE0101960E94A8
:10319000EA0E0E943F0C8091CD04811150C0109224
:1031A000C9041092CA041092CB041092CC040E945D
:1031B0003F0C65E673E08EE096E00E94260E65E621
:1031C00073E08EE096E00E94260E65E673E08EE0E6
:1031D00096E00E94260E65E673E08EE096E00E947F
:1031E000260E65E673E08EE096E00E94260E65E608
:1031F00073E08EE096E00E94260E65E673E084EDB3
:1032000094E00E94260E65E673E084ED94E00E944F
:10321000260E65E673E084ED94E00E94260E65E6D6
:1032200073E084ED94E00E94260E65E673E081E78A
:1032300095E00E94260E85E693E00E947010269687
:103240000FB6F894DEBF0FBECDBFDF91CF911F91B7
:103250000F9108950E943F0C65E673E08EE096E0C2
:103260000E94260E65E673E08EE096E00E94260E30
:1032700065E673E08EE096E00E94260E65E673E058
:103280008EE096E00E94260E65E673E08EE096E002
:103290000E94260E65E673E084ED94E00E94260EFF
:1032A00065E673E081E795E00E94260E65E673E02F
:1032B0008EE096E00E94260E65E673E084ED94E0D1
:1032C0000E94260E65E673E081E795E00E94260ED7
:1032D00065E673E08EE096E00E94260E65E673E0F8
:1032E0008EE096E00E94260E65E673E084ED94E0A1
:1032F0000E94260E65E673E081E795E00E94260EA7
:1033000065E673E08EE096E00E94260E65E673E0C7
:103310008EE096E00E94260E65E673E08EE096E071
:103320007CCF0F931F93CF93DF9300D000D0CDB706
:10333000DEB70E944B0C1092C9041092CA0410927E
:10334000CB041092CC0483E00E94790390939704FD
:1033500080939604892B09F0A5C0809196049091E2
:103360009704892B09F051C083E00E947903909360
:103370009704809396040E94470C00919D0410913D
:103380009E04C8010E9401040E943F0CC8010E94D3
:1033900001048091C9049091CA04A091CB04B0911A
:1033A000CC040196A11DB11D8093C9049093CA0459
:1033B000A093CB04B093CC04813B9D4AA140B105BE
:1033C00060F28CE693E00E947010409114075091D7
:1033D0001507609110077091110784ED94E00E9429
:1033E000080260E177E08EE096E00E943A0E6CE61B
:1033F00073E0CE0101960E94170FCE0101960E9444
:10340000530ECE0101960E94EA0E0E943F0C80915D
:10341000CD0481113CC00E943F0C65E673E08EE054
:1034200096E00E94260E65E673E084ED94E00E942B
:10343000260E65E673E081E795E00E94260E65E6BC
:1034400073E08EE096E00E94260E65E673E084ED60
:1034500094E00E94260E65E673E081E795E00E9405
:10346000260E65E673E08EE096E00E94260E65E685
:1034700073E084ED94E00E94260E65E673E081E738
:1034800095E00E94260E85E693E00E947010269635
:103490000FB6F894DEBF0FBECDBFDF91CF911F9165
:1034A0000F9108950E943F0C65E673E08EE096E070
:1034B0000E94260E65E673E084ED94E00E94260EDD
:1034C00065E673E081E795E00E94260EA6CF0F9394
:1034D0001F93CF93DF9300D000D01F921F92CDB7E0
:1034E000DEB78C01DC01ED91FC910284F385E02DC7
:1034F0001995F80184850E945307892BB1F148E0A2
:1035000050E0BE016F5F7F4FD8011C968C910E94E6
:103510004D0818161906F4F4D801519684E0FE01FE
:10352000319601900D928A95E1F78D8190E0982F68
:1035300088272E81820F911DF801968B858B8F81B4
:10354000282F30E0322F22278885820F932F911D5C
:10355000928F818F28960FB6F894DEBF0FBECDBF35
:10356000DF91CF911F910F91089590E080E0F2CF0D
:103570004F925F926F927F928F929F92AF92BF9283
:10358000CF92DF92EF92FF920F931F93CF93DF932F
:10359000CDB7DEB763970FB6F894DEBF0FBECDBFD1
:1035A0007C016B013A01FB01DB018D918111FDCFA3
:1035B00030E020E090E080E05AE04191442301F1C6
:1035C000843091050CF042C04E3269F42F3F310532
:1035D00009F0E4F5D301A80FB91F12962C930196B8
:1035E00030E020E0EACF529FB001539F700D1124CC
:1035F000242F440F330B20533109260F371FDDCF03
:103600002F3F310509F014F584309105FCF4680E64
:10361000791EF3012283CC24C394D12CC601639676
:103620000FB6F894DEBF0FBECDBFDF91CF911F91D3
:103630000F91FF90EF90DF90CF90BF90AF909F9051
:103640008F907F906F905F904F900895F701428127
:103650005381648175818091DA069091DB06A09197
:10366000DC06B091DD06481759076A077B0709F4A5
:1036700000C28701085F1F4F0E9463046F707727A5
:103680007C5FC8010E941A09813009F0F7C18FE1FF
:1036900093E09A838983F70182819381A481B58124
:1036A0008B839C83AD83BE8345E350E0BE016F5F97
:1036B0007F4FC8010E942A05892B31F4D12CC12CDF
:1036C000C8010E943F06AACF0E946304F7017783D6
:1036D000668342E050E0B7016A5F7F4FC8010E94F5
:1036E000AC0781E090E09A83898342E050E0BE011C
:1036F0006F5F7F4FC8010E94AC0780E091E09A8322
:10370000898342E050E0BE016F5F7F4FC8010E9495
:10371000AC071A82198242E050E0BE016F5F7F4F12
:10372000C8010E94AC0742E050E0BE016F5F7F4FCE
:10373000C8010E94AC0742E050E0BE016F5F7F4FBE
:10374000C8010E94AC075601F6018081882301F16F
:103750006501F60181912F01882311F08E32B1F4B9
:1037600046018A189B081814190474F48D8641E0E8
:1037700050E0BE01635F7F4FC8010E94AC07A40107
:10378000B501C8010E94AC075201DECF6201E1CF52
:103790001D8641E050E0BE01635F7F4FC8010E947B
:1037A000AC07C12CDD24D394DA82C98242E050E018
:1037B000BE016F5F7F4FC8010E94AC07DA82C982E9
:1037C00042E050E0BE016F5F7F4FC8010E94AC072E
:1037D000C8010E94F108892B09F470CFF3E0AF2EE5
:1037E000B12C230122E0420E511C43C0F70142815B
:1037F000538164817581818D928DA38DB48D48171D
:1038000059076A077B0709F02AC1858D968DC597F0
:1038100009F025C181A192A10C970CF425C14CE0BF
:1038200050E0BE016F5F7F4FC8010E948A088B8104
:103830009C819827892798279A8B898BF701468145
:10384000578129813A814217530711F497FD2FC000
:10385000C8010E940205ECEFCE2EDD24DA9481E04F
:10386000A81AB10809F42CCFFFEFCF16DF0609F034
:1038700027CF0E9463043B014C01C8010E94671AD4
:10388000181619060CF4B2CF0E9463046619770962
:1038900088099909693873418105910508F0DBC0F1
:1038A00062E370E080E090E00E943104E6CF8F7028
:1038B0009270892B41F0C8010E9402057BEFC72E50
:1038C000DD24DA94CCCF6F80788476246724762444
:1038D000D12CC12C61147104D1F4C8010E940205DD
:1038E0006AEFC62EDD24DA94BACF8D85811117C018
:1038F000C8010E94A908C8010E94A908C8010E9425
:10390000A908C8010E94A908FFEFCF1ADF0A8D811C
:103910009E81982789279827C816D906A8F441E0E0
:1039200050E0BE01635F7F4FC8010E948A088D8509
:103930008823D9F28D859FEF980F9D878823A9F260
:10394000C8010E94A908F6CF912C812C41E050E0DB
:10395000BE016D5E7F4FC8010E948A088B89982F37
:10396000907C61F4882389F08B899FEF980F9B8B63
:10397000882341F0C8010E94A908F6CFC8010E941F
:10398000A9081B8A8B898111E1CF42E050E0BE017A
:10399000615F7F4FC8010E948A0842E050E0BE018B
:1039A000635F7F4FC8010E948A08C8010E94A9086E
:1039B000C8010E94A908C8010E94A908C8010E9464
:1039C000A90842E050E0BE016F5E7F4FC8010E942F
:1039D0008A088F85988981159140E9F4CD84DE8429
:1039E000DC24CD24DC2481E0C816D104A1F489892B
:1039F0009A898115944041F0C8010E94020557EF51
:103A0000C52EDD24DA942BCF44E050E0B201C8018A
:103A10000E948A0824CFD12CC12C89899A899827A1
:103A200089279827C816D90638F4C8010E94A90822
:103A3000FFEFCF1ADF0AF1CF2FEF821A920A681434
:103A4000790409F083CFC8010E94020546EFC42E15
:103A5000DD24DA9404CFCC24CA94DC2C00CF2EEFE2
:103A6000C22EDD24DA94FBCE9DEFC92EDD24DA943C
:103A7000F6CE8EEFC82EDD24DA94D0CDD12CC12C19
:103A8000CDCDCF92DF92EF92FF920F931F93CF9302
:103A9000DF93CDB7DEB7AF970FB6F894DEBF0FBE9A
:103AA000CDBF7C016A010FE113E01A8309831C86F4
:103AB0001B8688EE93E0A0E0B0E08D879E87AF87FD
:103AC000B88B8CE092E09A87898788E08D8B198F7C
:103AD000088F1A8E1B8E1C8E1D8E1BA70AA71CA674
:103AE0001DA61EA61FA68091C7069091C806A0918C
:103AF000C906B091CA068EA39FA3A8A7B9A78B83B6
:103B00009C83AD83BE8318861F82AE01465D5F4FE6
:103B1000CE0101960E94B81A81309105B1F4D70107
:103B2000ED91FC910088F189E02D1DA30CA38CA5DB
:103B30009DA5AEA5BFA58EA39FA3A8A7B9A7A601C3
:103B4000BE016C5D7F4FC7011995AF960FB6F89413
:103B5000DEBF0FBECDBFDF91CF911F910F91FF90C0
:103B6000EF90DF90CF900895CF92DF92EF92FF9287
:103B70000F931F93CF93DF93CDB7DEB7AF970FB6F9
:103B8000F894DEBF0FBECDBF7C016A010FE113E0E8
:103B90001A8309831C861B8688EE93E0A0E0B0E0C0
:103BA0008D879E87AF87B88B8CE092E09A87898754
:103BB00088E08D8B198F088F1A8E1B8E1C8E1D8EA0
:103BC0001BA70AA71CA61DA61EA61FA68091C70696
:103BD0009091C806A091C906B091CA068EA39FA372
:103BE000A8A7B9A78B839C83AD83BE8318861F8249
:103BF000AE01465D5F4FCE0101960E94B81A81303A
:103C00009105B1F4D701ED91FC910484F585E02D87
:103C10001DA30CA38CA59DA5AEA5BFA58EA39FA398
:103C2000A8A7B9A7A601BE016C5D7F4FC701199572
:103C3000AF960FB6F894DEBF0FBECDBFDF91CF9128
:103C40001F910F91FF90EF90DF90CF9008951F92FA
:103C50000F920FB60F9211240BB60F922F933F9332
:103C60004F935F936F937F938F939F93AF93BF9384
:103C7000EF93FF9384ED94E00E947702FF91EF9120
:103C8000BF91AF919F918F917F916F915F914F9174
:103C90003F912F910F900BBE0F900FBE0F901F9072
:103CA00018951F920F920FB60F9211240BB60F9218
:103CB0002F933F934F935F936F937F938F939F9334
:103CC000AF93BF93EF93FF9384ED94E00E947F0442
:103CD000FF91EF91BF91AF919F918F917F916F91E4
:103CE0005F914F913F912F910F900BBE0F900FBEA0
:103CF0000F901F9018951F920F920FB60F921124DC
:103D00000BB60F922F933F934F935F936F937F93D5
:103D10008F939F93AF93BF93EF93FF9381E795E0CA
:103D20000E947702FF91EF91BF91AF919F918F9188
:103D30007F916F915F914F913F912F910F900BBEAB
:103D40000F900FBE0F901F9018951F920F920FB6F5
:103D50000F9211240BB60F922F933F934F935F93C3
:103D60006F937F938F939F93AF93BF93EF93FF9343
:103D700081E795E00E947F04FF91EF91BF91AF91A1
:103D80009F918F917F916F915F914F913F912F9173
:103D90000F900BBE0F900FBE0F901F9018951F92A3
:103DA0000F920FB60F9211242F933F938F939F93EF
:103DB000AF93BF938091680490916904A0916A04C5
:103DC000B0916B043091670423E0230F2D3758F531
:103DD0000196A11DB11D2093670480936804909300
:103DE0006904A0936A04B0936B0480916C04909171
:103DF0006D04A0916E04B0916F040196A11DB11DD8
:103E000080936C0490936D04A0936E04B0936F0440
:103E1000BF91AF919F918F913F912F910F900FBEC6
:103E20000F901F90189526E8230F0296A11DB11D33
:103E3000D2CF1F920F920FB60F9211240BB60F9292
:103E40002F933F934F935F936F937F938F939F93A2
:103E5000AF93BF93EF93FF938EE096E00E947702BB
:103E6000FF91EF91BF91AF919F918F917F916F9152
:103E70005F914F913F912F910F900BBE0F900FBE0E
:103E80000F901F9018951F920F920FB60F9211244A
:103E90000BB60F922F933F934F935F936F937F9344
:103EA0008F939F93AF93BF93EF93FF938EE096E032
:103EB0000E947F04FF91EF91BF91AF919F918F91ED
:103EC0007F916F915F914F913F912F910F900BBE1A
:103ED0000F900FBE0F901F901895CF92DF92EF9228
:103EE000FF921092D304E4EDF4E01382128288EE84
:103EF000C82E83E0D82EE12CF12CC482D582E68234
:103F0000F78285EE92E0918380832DEC30E0358757
:103F100024872CEC30E03787268728EC30E0318B83
:103F2000208B29EC30E0338B228B2AEC30E0358B70
:103F3000248B2EEC30E0378B268B118E128E138E55
:103F4000148EE1E7F5E013821282C482D582E68204
:103F5000F7829183808325EC30E03587248724EC39
:103F600030E03787268720EC30E0318B208B21EC46
:103F700030E0338B228B22EC30E0358B248B26EC27
:103F800030E0378B268B118E128E138E148EEEE05E
:103F9000F6E013821282C482D582E682F782918390
:103FA000808385ED90E09587848784ED90E0978706
:103FB000868780ED90E0918B808B81ED90E0938BF4
:103FC000828B82ED90E0958B848B86ED90E0978BD1
:103FD000868B118E128E138E148EEBEAF6E080E53E
:103FE000808381E08183EDEAF6E08FE193E09183C5
:103FF00080831282138214821582E3EBF6E09183B0
:1040000080831282138214821582E9EBF6E0918399
:1040100080831282138214821582EFEBF6E0918383
:1040200080831282138214821582E2EDF6E091837E
:1040300080831282138214821582E5ECF6E091836C
:1040400080831282138214821582138612862AE0DC
:104050002487E8EDF6E09183808312821382148234
:104060001582EEEDF6E09183808312821382148232
:104070001582E6E1F7E09183808312821382148235
:10408000158263E273E080E197E00E94170F63E21C
:1040900073E08AE097E00E94170FE4E0F7E01382F4
:1040A000128285E193E0918380832EEB35E13583A5
:1040B0002483EEEFF6E013821282918380838FEBEC
:1040C00095E195838483E1EFF6E013821282C48246
:1040D000D582E682F78225EF32E03183208388E0C3
:1040E0008487E4EEF6E013821282C482D582E682EF
:1040F000F782318320838487FF90EF90DF90CF9009
:104100000895CF93DF9300D000D0CDB7DEB7789479
:1041100084B5826084BD84B5816084BD85B58260CC
:1041200085BD85B5816085BD80916E00816080937D
:104130006E001092810080918100826080938100E6
:1041400080918100816080938100809180008160F6
:10415000809380008091B10084608093B100809151
:10416000B00081608093B000809191008260809364
:1041700091008091910081608093910080919000E6
:104180008160809390008091A10082608093A10063
:104190008091A10081608093A1008091A000816046
:1041A0008093A00080912101826080932101809101
:1041B00021018160809321018091200181608093A1
:1041C000200180917A00846080937A0080917A0047
:1041D000826080937A0080917A00816080937A0077
:1041E00080917A00806880937A001092C1000FB6A7
:1041F000F894A89580916000886180936000109287
:1042000060000FBE1092D30460E086E10E94D003EC
:1042100060E087E10E94D00360E088E10E94D00363
:1042200060E089E10E94D00360E08AE10E94D0034F
:1042300060E082E00E94D00360E083E00E94D0034F
:1042400060E086E30E94D00360E087E30E94D00331
:1042500060E088E30E94D00360E089E30E94D0031D
:1042600060E08AE30E94D00360E08BE30E94D00309
:1042700060E08BE10E94D00360E08CE10E94D003FB
:1042800060E08DE10E94D00360E08EE10E94D003E7
:1042900060E08FE10E94D00360E082E10E94D003E1
:1042A00060E083E10E94D00360E08CE30E94D003D1
:1042B00060E08DE30E94D00360E08EE30E94D003B3
:1042C00060E08FE30E94D00360E080E40E94D003AE
:1042D00060E081E40E94D00360E080E20E94D003AD
:1042E00060E081E20E94D00360E082E20E94D0039D
:1042F00060E083E20E94D00360E084E10E94D0038A
:1043000060E085E10E94D00360E082E40E94D00377
:1043100060E083E40E94D00360E084E40E94D00364
:1043200060E085E40E94D00361E084E20E94D00353
:1043300061E085E20E94D00361E086E20E94D00342
:1043400061E087E20E94D00361E088E20E94D0032E
:1043500061E084E00E94D00361E085E00E94D00328
:1043600061E086E00E94D00361E089E20E94D00310
:1043700061E08AE20E94D00361E08BE20E94D003F8
:1043800061E08CE20E94D00361E08DE20E94D003E4
:1043900061E088E00E94D00361E089E00E94D003E0
:1043A00061E087E00E94D00361E085E30E94D003D2
:1043B00061E08FE20E94D00361E080E30E94D003BD
:1043C00061E081E30E94D00361E08CE00E94D003B1
:1043D00061E08DE00E94D00361E08AE00E94D0039A
:1043E00061E08AE00E94A20361E085E20E94D003BE
:1043F00061E086E20E94D00361E086E20E94D00381
:1044000061E088E20E94D00361E084E00E94D00372
:1044100061E085E00E94D00361E086E00E94D00365
:1044200061E08AE20E94D00361E089E20E94D00349
:1044300061E08BE20E94D00361E08CE20E94D00335
:1044400061E08DE20E94D00361E088E00E94D00329
:1044500061E08CE00E94D00361E08DE00E94D00317
:1044600061E087E20E94D00361E081E30E94D00313
:1044700061E080E30E94D00361E084E20E94D00307
:1044800061E085E30E94D00361E089E00E94D003EF
:1044900061E087E00E94D00361E08FE20E94D003D8
:1044A00060E086E10E94D00360E087E10E94D003D3
:1044B00060E088E30E94D00360E087E30E94D003BD
:1044C00060E08AE10E94D00360E08BE10E94D003AB
:1044D00060E08EE10E94D00360E08FE10E94D00393
:1044E00060E08CE10E94D00360E08DE10E94D00387
:1044F00060E08CE30E94D00360E080E40E94D0037F
:1045000060E081E40E94D00360E082E40E94D00376
:1045100060E083E40E94D00360E084E40E94D00362
:1045200060E081E20E94D00360E083E20E94D00359
:1045300060E080E20E94D00360E08FE30E94D0033D
:1045400060E08DE30E94D00360E082E00E94D0032F
:1045500060E083E00E94D00384ED94E00E94E101DA
:1045600081E795E00E94E1018EE096E00E94E10182
:1045700060E085E20E94A20360E086E20E94A2035E
:1045800060E088E20E94A20360E084E00E94A2034F
:1045900060E085E00E94A20360E086E00E94A20342
:1045A00060E08AE20E94A20360E089E20E94A20326
:1045B00060E08BE20E94A20360E08CE20E94A20312
:1045C00060E08DE20E94A20360E088E00E94A20306
:1045D00060E08CE00E94A20360E08DE00E94A203F4
:1045E00060E081E30E94A20368EE73E080E090E067
:1045F0000E94310461E08CE00E94A20366E773E050
:1046000081E795E00E94260E6BE873E081E795E074
:104610000E94260E6CE272E081E795E00E94260E71
:1046200068E973E081E795E00E94260E50E0652E70
:1046300050E0752E68EBE62E6BE0F62E09E110E0F7
:1046400078E8C72E73E1D72E40E0A42E40E0B42EC8
:104650008091D304882309F0A8950E94590C0E94E8
:10466000590C8091920490919304019709F07DC0B8
:104670008091900490919104892B09F05BC2809104
:10468000CE049091CF04019709F054C280919A040E
:1046900090919B04019709F04DC280918E049091F6
:1046A0008F04019771F56AEA73E084ED94E00E944B
:1046B000260E6AEA73E084ED94E00E94260E6AEA10
:1046C00073E084ED94E00E94260E6AEA73E08EE0C7
:1046D00096E00E94260E6AEA73E08EE096E00E9461
:1046E000260E6AEA73E08EE096E00E94260E6AEAE1
:1046F00073E081E795E00E94260E8AEA93E00E942B
:1047000070108091700490917104019771F561EBC4
:1047100073E084ED94E00E94260E61EB73E084ED7B
:1047200094E00E94260E61EB73E084ED94E00E9419
:10473000260E61EB73E08EE096E00E94260E61EBA0
:1047400073E08EE096E00E94260E61EB73E08EE04F
:1047500096E00E94260E61EB73E081E795E00E94EF
:10476000260E81EB93E00E9470108091920490914C
:104770009304892B09F0DEC18091900490919104FB
:10478000892B09F0E5C50E94590CE0917804F0915D
:10479000790460917604709177044091830450917C
:1047A0008404209174043091750480919204909156
:1047B0009304A0917A04B0917B04119709F06FC023
:1047C000EF2B09F06CC0672B09F069C0452B09F08D
:1047D00066C0232B09F063C0892B09F060C080916B
:1047E000900490919104892B09F059C00E94590CB2
:1047F0008091CE049091CF04892BD1F580919A04B9
:1048000090919B040197A1F18091700490917104A3
:10481000019741F40E940D0C68EB73E081E795E08D
:104820000E94260E8091720490917304019791F476
:1048300061E089E00E94A20361E087E00E94A20398
:1048400060E08FE20E94A2036FEB73E081E795E0E6
:104850000E94260E80918E0490918F04019741F45E
:104860000E94190C66EC73E081E795E00E94260E29
:104870008091700490917104892B09F086CF80910A
:10488000720490917304892B09F07FCF80918E047C
:1048900090918F04892B09F078CF0E94250C80918C
:1048A0007A0490917B04892B09F04EC00E94250C5C
:1048B000E0917804F0917904609176047091770426
:1048C00040918304509184042091740430917504C4
:1048D0008091920490919304A0917A04B0917B040A
:1048E000AB2B91F5EF2B81F5672B71F5452B61F51E
:1048F0002130310549F5892B39F58091900490914B
:104900009104892B09F50E94590C809070049090B5
:10491000710421E08216910411F40E94050C80912B
:104920007204909173048130910519F40E94FD0B7B
:10493000BFCF892809F0BCCF892B09F0B9CF0E94DD
:10494000F50B0E94590CB4CF8091740490917504BA
:10495000892B11F40E94F50B609178047091790411
:10496000409176045091770480918304909184045F
:104970002091920430919304E0917A04F0917B04A9
:10498000EF2BB1F5672BA1F5452B91F58130910502
:1049900079F58091740490917504892B69F5232B26
:1049A00059F58091900490919104892B29F50E94EA
:1049B000590C809070049090710481E088169104E5
:1049C00011F40E94E50B8091720490917304813080
:1049D000910519F40E94D20BBFCF892809F0BCCFF2
:1049E000892B09F0B9CF0E94590C0E94CA0BB4CF91
:1049F000892B11F40E94CA0B4091780450917904DC
:104A000080917604909177042091920430919304E0
:104A100060917A0470917B04672BD1F5452BC1F529
:104A200081309105A9F58091830490918404892BAC
:104A300099F58091740490917504892B69F5232B65
:104A400059F58091900490919104892B29F50E9449
:104A5000590C809070049090710491E08916910433
:104A600011F40E94BA0B809172049091730481300A
:104A7000910519F40E94AA0BBFCF892809F0BCCF79
:104A8000892B09F0B9CF0E94590C0E94A20BB4CF18
:104A9000892B11F40E94A20B8091780490917904E3
:104AA000209192043091930440917A0450917B04B8
:104AB000452BE1F581309105C9F5809176049091FF
:104AC0007704892BB9F58091830490918404892B14
:104AD00089F58091740490917504892B59F5232BE5
:104AE00049F58091900490919104892B19F50E94C9
:104AF000590C809070049090710421E0821691040A
:104B000011F40E94920B8091720490917304813091
:104B1000910519F40E94760BBFCF892809F0BCCF0C
:104B2000892B09F0B9CF0E946E0BB6CF892B11F4F7
:104B30000E946E0B8091920490919304019709F06A
:104B400007C48091900490919104019709F000C4EA
:104B500080918E0490918F04019709F0ADC08091EF
:104B6000CE049091CF0420918D04211104C1209195
:104B70008B0430918C042130310511F00C940C32EF
:104B8000009711F00C940C328091890490918A0462
:104B9000019779F48091870490918804019749F4F2
:104BA00080919A0490919B04019719F484E080937A
:104BB0008D0480918D04811123C080918304909194
:104BC0008404892BE9F480918B0490918C040197E3
:104BD000B9F48091810490918204019789F48091C5
:104BE0007F0490918004019759F480917D04909105
:104BF0007E04019729F481E080938D0410927C0457
:104C000090908D04911002C00E94310C8091850417
:104C100090918604019721F58091830490918404FA
:104C2000009709F006C12091890430918A0421304F
:104C3000310509F0FEC020918704309188042130AD
:104C4000310509F0F6C020917D0430917E042130B9
:104C5000310509F0EEC081E080938D0480937C04DF
:104C600080918B0490918C04019731F580918D0493
:104C7000863011F58091830490918404009709F0A7
:104C80009AC12091890430918A042130310509F0BC
:104C900092C120918704309188042130310509F0B8
:104CA0008AC120917D0430917E042130310509F0C4
:104CB00082C181E080937C040E94590C80917A0427
:104CC00090917B04892B09F053C2809178049091D4
:104CD0007904892B09F04CC2809176049091770475
:104CE000892B09F045C28091830490918404892B1B
:104CF00009F03EC28091740490917504892B09F0EB
:104D000037C26EED73E081E795E00E94260E809138
:104D1000CE049091CF04892B09F02AC280919A0485
:104D200090919B04019709F023C26FEE73E081E735
:104D300095E00E94260E8091720490917304019771
:104D400009F016C26AE074E081E795E00E94260E41
:104D50000E94590C8CE10E94790390937E04809309
:104D60007D0480917D0490917E04892B09F0D4C14B
:104D70000E94D20BEFCF019709F01BCF80919A04CC
:104D800090919B04019709F014CF80918B0490912E
:104D90008C04019771F561EB73E084ED94E00E945F
:104DA000260E61EB73E084ED94E00E94260E61EB29
:104DB00073E084ED94E00E94260E61EB73E08EE0D8
:104DC00096E00E94260E61EB73E08EE096E00E9472
:104DD000260E61EB73E08EE096E00E94260E61EBFA
:104DE00073E081E795E00E94260E81EB93E00E943C
:104DF000701080918504909186040197B1F46AEA5D
:104E000073E08EE096E00E94260E6AEA73E084ED7D
:104E100094E00E94260E6AEA73E081E795E00E9422
:104E2000260E8AEA93E00E94701098E090938D0419
:104E3000C0CE2091CE043091CF042130310509F04D
:104E400075C0892B09F0B4C08091890490918A04BF
:104E5000019709F0ADC08091870490918804019773
:104E600009F0A6C080919A0490919B04019709F0E3
:104E70009FC023E020938D0410927C0480E20E9466
:104E8000790390938F0480938E0480918E04909187
:104E90008F04019709F0E4CE80E20E947903909399
:104EA0008F0480938E0487E10E94790390938C0491
:104EB00080938B0488E30E94790390938604809307
:104EC00085040197B1F46AEA73E08EE096E00E94EF
:104ED000260E6AEA73E084ED94E00E94260E6AEAE8
:104EE00073E081E795E00E94260E8AEA93E00E9433
:104EF000701080918B0490918C04019731F661EBD6
:104F000073E08EE096E00E94260E61EB73E084ED84
:104F100094E00E94260E61EB73E081E795E00E9429
:104F2000260E8AEA93E00E947010AFCF232B09F07F
:104F30003FC0892BE9F58091890490918A040197FB
:104F4000B9F58091870490918804019789F5809143
:104F50009A0490919B04019759F583E0981228C018
:104F600092E090938D0480918E0490918F0401972C
:104F700009F076CE80E20E94790390938F048093AB
:104F80008E0460ED73E08EE096E00E94260E60EDE8
:104F900073E084ED94E00E94260E60ED73E081E7FB
:104FA00095E00E94260E80ED93E00E947010DBCF0A
:104FB0000E94310C55CE2091CE043091CF04213087
:104FC000310509F068C0892B09F0A3C080918904DC
:104FD00090918A04019709F09CC080918704909178
:104FE0008804019709F095C080919A0490919B04E0
:104FF000019709F08EC010927C0480E20E94790330
:1050000080E20E94790390938F0480938E0487E15D
:105010000E94790390938C0480938B0488E30E9410
:10502000790390938604809385040197B1F46AEA2A
:1050300073E08EE096E00E94260E6AEA73E084ED4B
:1050400094E00E94260E6AEA73E081E795E00E94F0
:10505000260E8AEA93E00E94701080918B04909152
:105060008C04019709F028CE61EB73E08EE096E0A6
:105070000E94260E61EB73E084ED94E00E94260E00
:1050800061EB73E081E795E00E94260E81EB93E0EF
:105090000E94701011CE232BE1F5892BD1F5809160
:1050A000890490918A040197A1F5809187049091D9
:1050B0008804019771F580919A0490919B0401975F
:1050C00041F524E020938D0480918E0490918F040B
:1050D000019709F0F1CD80E20E94790390938F044B
:1050E00080938E0467ED73E08EE096E00E94260EBA
:1050F00067ED73E084ED94E00E94260E67ED73E0A7
:1051000081E795E00E94260E87ED93E00E947010E3
:10511000DBCF0E94310CD0CD0E94CA0B0E94310C13
:1051200080917F0490918004892B51F40E94AA0BF6
:105130008BE10E9479039093800480937F04F0CFE9
:105140000E94A20B0E94310C8091810490918204F4
:10515000892B51F40E94760B87E30E947903909388
:10516000820480938104F0CF0E946E0B0E94310C68
:1051700080918D04813059F50E94590C80918B04E7
:1051800090918C040197D1F40E94310C61E08DE084
:105190000E94A20388E30E9479039093860480937F
:1051A00085048091850490918604892B19F40E94CE
:1051B0000D0CF0CF0E94310C0E94250C80918504CB
:1051C00090918604019709F062C00E94F80C8091CA
:1051D0008D04823009F05BC00E94590C8CE10E9462
:1051E000790390937E0480937D0480917D04909157
:1051F0007E04892B19F40E94D20BF0CF0E94CA0BB7
:105200000E94310C80917F0490918004892B51F48D
:105210000E94AA0B8BE10E947903909380048093F3
:105220007F04F0CF0E94A20B0E94310C8091810478
:1052300090918204892B51F40E94760B87E30E949F
:1052400079039093820480938104F0CF0E946E0BC7
:105250000E94310C80918B0490918C04892B61F415
:105260000E94190C87E10E94790390938C0480932B
:105270008B0410927C04EECF0E94310C0E94250C0E
:1052800010927C0486E080938D040E94F80C80913B
:105290008D04863011F40E94F80C80918D048430C6
:1052A00009F056C010927C048CE10E94790390931F
:1052B0007E0480937D0480917D0490917E04892BEF
:1052C00019F40E94D20BF0CF0E94CA0B0E94310C3D
:1052D00080917F0490918004892B51F40E94AA0B45
:1052E0008BE10E9479039093800480937F04F0CF38
:1052F0000E94A20B0E94310C809181049091820443
:10530000892B51F40E94760B87E30E9479039093D6
:10531000820480938104F0CF0E946E0B0E94310CB6
:1053200080918B0490918C04892B61F40E94190C5C
:1053300087E10E94790390938C0480938B041092F0
:105340007C04EECF0E94310C0E94250C10928D043B
:105350000E94530F0E94590C8091D004813009F0B3
:105360008CC08091CE049091CF04019709F083C046
:105370001092CD041092C9041092CA041092CB046A
:105380001092CC049090B60491101FC09090A2048B
:105390001092A1041092A2041092A3041092D004BF
:1053A00061E274E081E795E00E94260E492D50E00D
:1053B00070E060E02AE081E795E00E947B0D61E209
:1053C00073E081E795E00E946C0D8091A00489153F
:1053D00009F451C09092A004EFECE90DEA3208F014
:1053E0004AC0F0E08827E850F64D8F4F0C943C32CD
:1053F000222A292A4B2A4D2A502A3B2A532A5C2A40
:10540000082B3B2A3B2A3B2A3B2A3B2A3B2A3B2AA6
:105410005C2C332D9C2E3F30A330BB3014311D311A
:1054200026312F313831413178311D3126312F313C
:105430007F3188318B313B2A3B2A3B2A3B2A3B2A4E
:105440003B2AC9310E94F50B60E080E30E94A20371
:1054500012C00E943F0C60E080E30E94A2030E9401
:10546000F50B10929F040E94310C83E293E00E949E
:1054700070101092A0041092D0040E94FF026114D8
:10548000710411F00E940000A114B10409F4E0C8F5
:105490000E946F04D9C861E0D8CF0E94FD0BEBCF0A
:1054A0000E94050CE8CF0E94F50B10939E04009318
:1054B0009D040E94FE15DFCF0E94F50B10939E0401
:1054C00000939D040E944B0C1092C9041092CA04D0
:1054D0001092CB041092CC0483E00E947903909345
:1054E000970480939604892B09F045C08091960417
:1054F00090919704892BC9F583E00E9479039093DA
:105500009704809396040E94470C89E190E00E94E2
:1055100001040E943F0C89E190E00E940104809107
:10552000C9049091CA04A091CB04B091CC04019617
:10553000A11DB11D8093C9049093CA04A093CB040C
:10554000B093CC04813B9D4AA140B10578F26CE652
:1055500073E0CE0101960E94170FCE0101960E94C2
:105560002610CE0101960E94EA0E0E943F0C809107
:10557000CD04811180CF0E943F0C65E673E08EE080
:1055800096E00E94260E65E673E084ED94E00E94AA
:10559000260E65E673E081E795E00E94260E65E63B
:1055A00073E08EE096E00E94260E65E673E084EDDF
:1055B00094E00E94260E65E673E081E795E00E9484
:1055C000260E65E673E08EE096E00E94260E65E604
:1055D00073E084ED94E00E94260E65E673E081E7B7
:1055E00095E00E94260E65E673E08EE096E00E944C
:1055F000260E65E673E084ED94E00E94260E65E6D3
:1056000073E081E795E00E94260E85E693E051C1A4
:105610000E94F50BD0929E04C0929D040E94430C00
:105620001092C9041092CA041092CB041092CC04B8
:1056300062E373E08EE096E00E94260E62E373E080
:105640008EE096E00E94260E62E373E08EE096E024
:105650000E94260E62E373E084ED94E00E94260E21
:1056600062E373E084ED94E00E94260E62E373E04F
:1056700084ED94E00E94260E62E373E08EE096E0F3
:105680000E94260E62E373E08EE096E00E94260EF2
:1056900062E373E08EE096E00E94260E62E373E020
:1056A00084ED94E00E94260E62E373E084ED94E0C2
:1056B0000E94260E62E373E084ED94E00E94260EC1
:1056C00062E373E08EE096E00E94260E62E373E0F0
:1056D0008EE096E00E94260E62E373E08EE096E094
:1056E0000E94260E62E373E084ED94E00E94260E91
:1056F00062E373E084ED94E00E94260E62E373E0BF
:1057000084ED94E00E94260E82E393E00E947010E4
:105710001092C9041092CA041092CB041092CC04C7
:105720002090C9043090CA044090CB045090CC041F
:1057300080E2281683E0380641045104E0F40E9418
:10574000470C80909D0490909E04C4010E94010427
:105750000E943F0CC4010E9401049FEF291A390ADC
:10576000490A590A2092C9043092CA044092CB04D3
:105770005092CC04D5CF0E943F0C0E94310C109265
:10578000C9041092CA041092CB041092CC0469E3AD
:1057900073E08EE096E00E94260E69E373E08EE0EF
:1057A00096E00E94260E69E373E08EE096E00E9488
:1057B000260E69E373E084ED94E00E94260E69E30F
:1057C00073E084ED94E00E94260E69E373E084EDBB
:1057D00094E00E94260E69E373E08EE096E00E945A
:1057E000260E69E373E08EE096E00E94260E69E3E0
:1057F00073E08EE096E00E94260E69E373E084ED8C
:1058000094E00E94260E69E373E084ED94E00E9428
:10581000260E69E373E084ED94E00E94260E69E3AE
:1058200073E08EE096E00E94260E69E373E08EE05E
:1058300096E00E94260E69E373E08EE096E00E94F7
:10584000260E69E373E084ED94E00E94260E69E37E
:1058500073E084ED94E00E94260E69E373E084ED2A
:1058600094E00E94260E69E373E08EE096E00E94C9
:10587000260E69E373E08EE096E00E94260E69E34F
:1058800073E08EE096E00E94260E69E373E084EDFB
:1058900094E00E94260E69E373E084ED94E00E9498
:1058A000260E69E373E084ED94E00E94260E89E3FE
:1058B00093E00E947010DFCD0E94F50B10939E04C0
:1058C00000939D040E944B0C1092C9041092CA04CC
:1058D0001092CB041092CC0483E00E947903909341
:1058E000970480939604892B09F045CE8091960405
:1058F00090919704892BC9F583E00E9479039093D6
:105900009704809396040E94470C89E190E00E94DE
:1059100001040E943F0C89E190E00E940104809103
:10592000C9049091CA04A091CB04B091CC04019613
:10593000A11DB11D8093C9049093CA04A093CB0408
:10594000B093CC0481349C49A105B10578F26CE692
:1059500073E0CE0101960E94170FCE0101960E94BE
:105960002610CE0101960E94EA0E0E943F0C809103
:10597000CD04811180CD1092C9041092CA041092F6
:10598000CB041092CC0480919604909197040197D7
:10599000B1F483E00E947903909397048093960476
:1059A0000E94470C80909D0490909E04C4010E9428
:1059B00001040E943F0CC4010E940104E4CF0E9434
:1059C0003F0C8091960490919704892BD9F583E040
:1059D0000E94790390939704809396040E94470C49
:1059E00080909D0490909E04C4010E9401040E9436
:1059F0003F0CC4010E9401048091C9049091CA0423
:105A0000A091CB04B091CC040196A11DB11D80934F
:105A1000C9049093CA04A093CB04B093CC04893AF0
:105A20009146A105B10568F26CE673E0CE010196DE
:105A30000E94170FCE0101960E942610CE010196FA
:105A40000E94EA0E0E943F0C8091CD04811113CD7B
:105A50001092C9041092CA041092CB041092CC0484
:105A60000E94310C88CD0E94F50BD0929E04C0920A
:105A70009D040E944B0C1092C9041092CA0410920B
:105A8000CB041092CC0464E273E08EE096E00E94B6
:105A9000260E64E273E08EE096E00E94260E64E239
:105AA00073E08EE096E00E94260E64E273E08EE0E2
:105AB00096E00E94260E64E273E08EE096E00E947B
:105AC000260E64E273E08EE096E00E94260E64E209
:105AD00073E08EE096E00E94260E64E273E08EE0B2
